{
  "_format": "hh-sol-artifact-1",
  "contractName": "Dex",
  "sourceName": "contracts/Dex.sol",
  "abi": [
    {
      "inputs": [],
      "stateMutability": "nonpayable",
      "type": "constructor"
    },
    {
      "anonymous": false,
      "inputs": [
        {
          "indexed": false,
          "internalType": "uint256",
          "name": "tradeId",
          "type": "uint256"
        },
        {
          "indexed": false,
          "internalType": "uint256",
          "name": "orderId",
          "type": "uint256"
        },
        {
          "indexed": true,
          "internalType": "bytes32",
          "name": "ticker",
          "type": "bytes32"
        },
        {
          "indexed": true,
          "internalType": "address",
          "name": "trader1",
          "type": "address"
        },
        {
          "indexed": true,
          "internalType": "address",
          "name": "trader2",
          "type": "address"
        },
        {
          "indexed": false,
          "internalType": "uint256",
          "name": "amount",
          "type": "uint256"
        },
        {
          "indexed": false,
          "internalType": "uint256",
          "name": "price",
          "type": "uint256"
        },
        {
          "indexed": false,
          "internalType": "uint256",
          "name": "date",
          "type": "uint256"
        }
      ],
      "name": "NewTrade",
      "type": "event"
    },
    {
      "inputs": [
        {
          "internalType": "bytes32",
          "name": "ticker",
          "type": "bytes32"
        },
        {
          "internalType": "address",
          "name": "tokenAddress",
          "type": "address"
        }
      ],
      "name": "addToken",
      "outputs": [],
      "stateMutability": "nonpayable",
      "type": "function"
    },
    {
      "inputs": [],
      "name": "admin",
      "outputs": [
        {
          "internalType": "address",
          "name": "",
          "type": "address"
        }
      ],
      "stateMutability": "view",
      "type": "function"
    },
    {
      "inputs": [
        {
          "internalType": "bytes32",
          "name": "ticker",
          "type": "bytes32"
        },
        {
          "internalType": "uint256",
          "name": "amount",
          "type": "uint256"
        },
        {
          "internalType": "uint256",
          "name": "price",
          "type": "uint256"
        },
        {
          "internalType": "enum Dex.Side",
          "name": "side",
          "type": "uint8"
        }
      ],
      "name": "createLimitOrder",
      "outputs": [],
      "stateMutability": "nonpayable",
      "type": "function"
    },
    {
      "inputs": [
        {
          "internalType": "bytes32",
          "name": "ticker",
          "type": "bytes32"
        },
        {
          "internalType": "uint256",
          "name": "amount",
          "type": "uint256"
        },
        {
          "internalType": "enum Dex.Side",
          "name": "side",
          "type": "uint8"
        }
      ],
      "name": "createMarketOrder",
      "outputs": [],
      "stateMutability": "nonpayable",
      "type": "function"
    },
    {
      "inputs": [
        {
          "internalType": "uint256",
          "name": "amount",
          "type": "uint256"
        },
        {
          "internalType": "bytes32",
          "name": "ticker",
          "type": "bytes32"
        }
      ],
      "name": "deposit",
      "outputs": [],
      "stateMutability": "nonpayable",
      "type": "function"
    },
    {
      "inputs": [
        {
          "internalType": "bytes32",
          "name": "ticker",
          "type": "bytes32"
        },
        {
          "internalType": "enum Dex.Side",
          "name": "side",
          "type": "uint8"
        }
      ],
      "name": "getOrders",
      "outputs": [
        {
          "components": [
            {
              "internalType": "uint256",
              "name": "id",
              "type": "uint256"
            },
            {
              "internalType": "enum Dex.Side",
              "name": "side",
              "type": "uint8"
            },
            {
              "internalType": "bytes32",
              "name": "ticker",
              "type": "bytes32"
            },
            {
              "internalType": "address",
              "name": "trader",
              "type": "address"
            },
            {
              "internalType": "uint256",
              "name": "amount",
              "type": "uint256"
            },
            {
              "internalType": "uint256",
              "name": "filled",
              "type": "uint256"
            },
            {
              "internalType": "uint256",
              "name": "price",
              "type": "uint256"
            },
            {
              "internalType": "uint256",
              "name": "date",
              "type": "uint256"
            }
          ],
          "internalType": "struct Dex.Order[]",
          "name": "",
          "type": "tuple[]"
        }
      ],
      "stateMutability": "view",
      "type": "function"
    },
    {
      "inputs": [],
      "name": "getTokens",
      "outputs": [
        {
          "components": [
            {
              "internalType": "bytes32",
              "name": "ticker",
              "type": "bytes32"
            },
            {
              "internalType": "address",
              "name": "tokenAddress",
              "type": "address"
            }
          ],
          "internalType": "struct Dex.Token[]",
          "name": "",
          "type": "tuple[]"
        }
      ],
      "stateMutability": "view",
      "type": "function"
    },
    {
      "inputs": [],
      "name": "nextOrderId",
      "outputs": [
        {
          "internalType": "uint256",
          "name": "",
          "type": "uint256"
        }
      ],
      "stateMutability": "view",
      "type": "function"
    },
    {
      "inputs": [],
      "name": "nextTradeId",
      "outputs": [
        {
          "internalType": "uint256",
          "name": "",
          "type": "uint256"
        }
      ],
      "stateMutability": "view",
      "type": "function"
    },
    {
      "inputs": [
        {
          "internalType": "bytes32",
          "name": "",
          "type": "bytes32"
        },
        {
          "internalType": "uint256",
          "name": "",
          "type": "uint256"
        },
        {
          "internalType": "uint256",
          "name": "",
          "type": "uint256"
        }
      ],
      "name": "orderBook",
      "outputs": [
        {
          "internalType": "uint256",
          "name": "id",
          "type": "uint256"
        },
        {
          "internalType": "enum Dex.Side",
          "name": "side",
          "type": "uint8"
        },
        {
          "internalType": "bytes32",
          "name": "ticker",
          "type": "bytes32"
        },
        {
          "internalType": "address",
          "name": "trader",
          "type": "address"
        },
        {
          "internalType": "uint256",
          "name": "amount",
          "type": "uint256"
        },
        {
          "internalType": "uint256",
          "name": "filled",
          "type": "uint256"
        },
        {
          "internalType": "uint256",
          "name": "price",
          "type": "uint256"
        },
        {
          "internalType": "uint256",
          "name": "date",
          "type": "uint256"
        }
      ],
      "stateMutability": "view",
      "type": "function"
    },
    {
      "inputs": [
        {
          "internalType": "uint256",
          "name": "",
          "type": "uint256"
        }
      ],
      "name": "tokenList",
      "outputs": [
        {
          "internalType": "bytes32",
          "name": "",
          "type": "bytes32"
        }
      ],
      "stateMutability": "view",
      "type": "function"
    },
    {
      "inputs": [
        {
          "internalType": "bytes32",
          "name": "",
          "type": "bytes32"
        }
      ],
      "name": "tokens",
      "outputs": [
        {
          "internalType": "bytes32",
          "name": "ticker",
          "type": "bytes32"
        },
        {
          "internalType": "address",
          "name": "tokenAddress",
          "type": "address"
        }
      ],
      "stateMutability": "view",
      "type": "function"
    },
    {
      "inputs": [
        {
          "internalType": "address",
          "name": "",
          "type": "address"
        },
        {
          "internalType": "bytes32",
          "name": "",
          "type": "bytes32"
        }
      ],
      "name": "traderBalances",
      "outputs": [
        {
          "internalType": "uint256",
          "name": "",
          "type": "uint256"
        }
      ],
      "stateMutability": "view",
      "type": "function"
    },
    {
      "inputs": [
        {
          "internalType": "uint256",
          "name": "amount",
          "type": "uint256"
        },
        {
          "internalType": "bytes32",
          "name": "ticker",
          "type": "bytes32"
        }
      ],
      "name": "withdraw",
      "outputs": [],
      "stateMutability": "nonpayable",
      "type": "function"
    }
  ],
  "bytecode": "0x608060405234801561001057600080fd5b5033600260006101000a81548173ffffffffffffffffffffffffffffffffffffffff021916908373ffffffffffffffffffffffffffffffffffffffff160217905550613e7e806100616000396000f3fe608060405234801561001057600080fd5b50600436106100ea5760003560e01c80639776aacf1161008c578063aa6ca80811610066578063aa6ca80814610277578063c9630cb014610295578063d9c0c950146102b1578063f851a440146102cd576100ea565b80639776aacf1461020f5780639ead72221461022b578063a8d2021a1461025b576100ea565b806372ce957e116100c857806372ce957e146101745780637f2c6246146101a4578063813ad083146101c0578063904194a3146101de576100ea565b80630bb431b6146100ef5780632a58b3301461012657806346e9658b14610144575b600080fd5b61010960048036038101906101049190613355565b6102eb565b60405161011d989796959493929190613952565b60405180910390f35b61012e61038a565b60405161013b9190613937565b60405180910390f35b61015e600480360381019061015991906132ca565b610390565b60405161016b91906137ef565b60405180910390f35b61018e60048036038101906101899190613200565b610566565b60405161019b9190613937565b60405180910390f35b6101be60048036038101906101b99190613306565b61058b565b005b6101c8611ca1565b6040516101d59190613937565b60405180910390f35b6101f860048036038101906101f39190613265565b611ca7565b60405161020692919061384e565b60405180910390f35b6102296004803603810190610224919061328e565b611ceb565b005b61024560048036038101906102409190613407565b611e3f565b6040516102529190613833565b60405180910390f35b61027560048036038101906102709190613430565b611e63565b005b61027f61211b565b60405161028c9190613811565b60405180910390f35b6102af60048036038101906102aa9190613430565b61230c565b005b6102cb60048036038101906102c691906133a4565b612533565b005b6102d56130fc565b6040516102e29190613774565b60405180910390f35b6004602052826000526040600020602052816000526040600020818154811061031357600080fd5b906000526020600020906008020160009250925050508060000154908060010160009054906101000a900460ff16908060020154908060030160009054906101000a900473ffffffffffffffffffffffffffffffffffffffff16908060040154908060050154908060060154908060070154905088565b60055481565b60606004600084815260200190815260200160002060008360018111156103e0577f4e487b7100000000000000000000000000000000000000000000000000000000600052602160045260246000fd5b8152602001908152602001600020805480602002602001604051908101604052809291908181526020016000905b8282101561055a578382906000526020600020906008020160405180610100016040529081600082015481526020016001820160009054906101000a900460ff166001811115610487577f4e487b7100000000000000000000000000000000000000000000000000000000600052602160045260246000fd5b60018111156104bf577f4e487b7100000000000000000000000000000000000000000000000000000000600052602160045260246000fd5b8152602001600282015481526020016003820160009054906101000a900473ffffffffffffffffffffffffffffffffffffffff1673ffffffffffffffffffffffffffffffffffffffff1673ffffffffffffffffffffffffffffffffffffffff1681526020016004820154815260200160058201548152602001600682015481526020016007820154815250508152602001906001019061040e565b50505050905092915050565b6003602052816000526040600020602052806000526040600020600091509150505481565b82600073ffffffffffffffffffffffffffffffffffffffff1660008083815260200190815260200160002060010160009054906101000a900473ffffffffffffffffffffffffffffffffffffffff1673ffffffffffffffffffffffffffffffffffffffff161415610631576040517f08c379a0000000000000000000000000000000000000000000000000000000008152600401610628906138f7565b60405180910390fd5b837f44414900000000000000000000000000000000000000000000000000000000006000808381526020019081526020016000206000015414156106aa576040517f08c379a00000000000000000000000000000000000000000000000000000000081526004016106a1906138b7565b60405180910390fd5b6001808111156106e3577f4e487b7100000000000000000000000000000000000000000000000000000000600052602160045260246000fd5b83600181111561071c577f4e487b7100000000000000000000000000000000000000000000000000000000600052602160045260246000fd5b14156107b65783600360003373ffffffffffffffffffffffffffffffffffffffff1673ffffffffffffffffffffffffffffffffffffffff16815260200190815260200160002060008781526020019081526020016000205410156107b5576040517f08c379a00000000000000000000000000000000000000000000000000000000081526004016107ac906138d7565b60405180910390fd5b5b6000600460008781526020019081526020016000206000806001811115610806577f4e487b7100000000000000000000000000000000000000000000000000000000600052602160045260246000fd5b86600181111561083f577f4e487b7100000000000000000000000000000000000000000000000000000000600052602160045260246000fd5b1461084b57600061084e565b60015b6001811115610886577f4e487b7100000000000000000000000000000000000000000000000000000000600052602160045260246000fd5b815260200190815260200160002090506000808690505b8280549050821080156108b05750600081115b1561194857600061095e8484815481106108f3577f4e487b7100000000000000000000000000000000000000000000000000000000600052603260045260246000fd5b90600052602060002090600802016005015485858154811061093e577f4e487b7100000000000000000000000000000000000000000000000000000000600052603260045260246000fd5b90600052602060002090600802016004015461312290919063ffffffff16565b9050600081831161096f5782610971565b815b9050610986818461312290919063ffffffff16565b92506109e5818686815481106109c5577f4e487b7100000000000000000000000000000000000000000000000000000000600052603260045260246000fd5b90600052602060002090600802016005015461313890919063ffffffff16565b858581548110610a1e577f4e487b7100000000000000000000000000000000000000000000000000000000600052603260045260246000fd5b9060005260206000209060080201600501819055503373ffffffffffffffffffffffffffffffffffffffff16858581548110610a83577f4e487b7100000000000000000000000000000000000000000000000000000000600052603260045260246000fd5b906000526020600020906008020160030160009054906101000a900473ffffffffffffffffffffffffffffffffffffffff1673ffffffffffffffffffffffffffffffffffffffff168b7fdb0c486e680ba8026643e6a85f8d157b5e7bcd4b32b54d564542570a9eb20416600654898981548110610b29577f4e487b7100000000000000000000000000000000000000000000000000000000600052603260045260246000fd5b906000526020600020906008020160000154868b8b81548110610b75577f4e487b7100000000000000000000000000000000000000000000000000000000600052603260045260246000fd5b90600052602060002090600802016006015442604051610b999594939291906139d0565b60405180910390a4600180811115610bda577f4e487b7100000000000000000000000000000000000000000000000000000000600052602160045260246000fd5b886001811115610c13577f4e487b7100000000000000000000000000000000000000000000000000000000600052602160045260246000fd5b14156111d657610c7c81600360003373ffffffffffffffffffffffffffffffffffffffff1673ffffffffffffffffffffffffffffffffffffffff16815260200190815260200160002060008d81526020019081526020016000205461312290919063ffffffff16565b600360003373ffffffffffffffffffffffffffffffffffffffff1673ffffffffffffffffffffffffffffffffffffffff16815260200190815260200160002060008c815260200190815260200160002081905550610daf610d30868681548110610d0f577f4e487b7100000000000000000000000000000000000000000000000000000000600052603260045260246000fd5b9060005260206000209060080201600601548361314e90919063ffffffff16565b600360003373ffffffffffffffffffffffffffffffffffffffff1673ffffffffffffffffffffffffffffffffffffffff16815260200190815260200160002060007f444149000000000000000000000000000000000000000000000000000000000081526020019081526020016000205461313890919063ffffffff16565b600360003373ffffffffffffffffffffffffffffffffffffffff1673ffffffffffffffffffffffffffffffffffffffff16815260200190815260200160002060007f4441490000000000000000000000000000000000000000000000000000000000815260200190815260200160002081905550610ef08160036000888881548110610e64577f4e487b7100000000000000000000000000000000000000000000000000000000600052603260045260246000fd5b906000526020600020906008020160030160009054906101000a900473ffffffffffffffffffffffffffffffffffffffff1673ffffffffffffffffffffffffffffffffffffffff1673ffffffffffffffffffffffffffffffffffffffff16815260200190815260200160002060008d81526020019081526020016000205461313890919063ffffffff16565b60036000878781548110610f2d577f4e487b7100000000000000000000000000000000000000000000000000000000600052603260045260246000fd5b906000526020600020906008020160030160009054906101000a900473ffffffffffffffffffffffffffffffffffffffff1673ffffffffffffffffffffffffffffffffffffffff1673ffffffffffffffffffffffffffffffffffffffff16815260200190815260200160002060008c8152602001908152602001600020819055506110f761100e868681548110610fed577f4e487b7100000000000000000000000000000000000000000000000000000000600052603260045260246000fd5b9060005260206000209060080201600601548361314e90919063ffffffff16565b6003600088888154811061104b577f4e487b7100000000000000000000000000000000000000000000000000000000600052603260045260246000fd5b906000526020600020906008020160030160009054906101000a900473ffffffffffffffffffffffffffffffffffffffff1673ffffffffffffffffffffffffffffffffffffffff1673ffffffffffffffffffffffffffffffffffffffff16815260200190815260200160002060007f444149000000000000000000000000000000000000000000000000000000000081526020019081526020016000205461312290919063ffffffff16565b60036000878781548110611134577f4e487b7100000000000000000000000000000000000000000000000000000000600052603260045260246000fd5b906000526020600020906008020160030160009054906101000a900473ffffffffffffffffffffffffffffffffffffffff1673ffffffffffffffffffffffffffffffffffffffff1673ffffffffffffffffffffffffffffffffffffffff16815260200190815260200160002060007f44414900000000000000000000000000000000000000000000000000000000008152602001908152602001600020819055505b60006001811115611210577f4e487b7100000000000000000000000000000000000000000000000000000000600052602160045260246000fd5b886001811115611249577f4e487b7100000000000000000000000000000000000000000000000000000000600052602160045260246000fd5b141561191b576112ac85858154811061128b577f4e487b7100000000000000000000000000000000000000000000000000000000600052603260045260246000fd5b9060005260206000209060080201600601548261314e90919063ffffffff16565b600360003373ffffffffffffffffffffffffffffffffffffffff1673ffffffffffffffffffffffffffffffffffffffff16815260200190815260200160002060007f4441490000000000000000000000000000000000000000000000000000000000815260200190815260200160002054101561135e576040517f08c379a000000000000000000000000000000000000000000000000000000000815260040161135590613917565b60405180910390fd5b6113c181600360003373ffffffffffffffffffffffffffffffffffffffff1673ffffffffffffffffffffffffffffffffffffffff16815260200190815260200160002060008d81526020019081526020016000205461313890919063ffffffff16565b600360003373ffffffffffffffffffffffffffffffffffffffff1673ffffffffffffffffffffffffffffffffffffffff16815260200190815260200160002060008c8152602001908152602001600020819055506114f4611475868681548110611454577f4e487b7100000000000000000000000000000000000000000000000000000000600052603260045260246000fd5b9060005260206000209060080201600601548361314e90919063ffffffff16565b600360003373ffffffffffffffffffffffffffffffffffffffff1673ffffffffffffffffffffffffffffffffffffffff16815260200190815260200160002060007f444149000000000000000000000000000000000000000000000000000000000081526020019081526020016000205461312290919063ffffffff16565b600360003373ffffffffffffffffffffffffffffffffffffffff1673ffffffffffffffffffffffffffffffffffffffff16815260200190815260200160002060007f444149000000000000000000000000000000000000000000000000000000000081526020019081526020016000208190555061163581600360008888815481106115a9577f4e487b7100000000000000000000000000000000000000000000000000000000600052603260045260246000fd5b906000526020600020906008020160030160009054906101000a900473ffffffffffffffffffffffffffffffffffffffff1673ffffffffffffffffffffffffffffffffffffffff1673ffffffffffffffffffffffffffffffffffffffff16815260200190815260200160002060008d81526020019081526020016000205461312290919063ffffffff16565b60036000878781548110611672577f4e487b7100000000000000000000000000000000000000000000000000000000600052603260045260246000fd5b906000526020600020906008020160030160009054906101000a900473ffffffffffffffffffffffffffffffffffffffff1673ffffffffffffffffffffffffffffffffffffffff1673ffffffffffffffffffffffffffffffffffffffff16815260200190815260200160002060008c81526020019081526020016000208190555061183c611753868681548110611732577f4e487b7100000000000000000000000000000000000000000000000000000000600052603260045260246000fd5b9060005260206000209060080201600601548361314e90919063ffffffff16565b60036000888881548110611790577f4e487b7100000000000000000000000000000000000000000000000000000000600052603260045260246000fd5b906000526020600020906008020160030160009054906101000a900473ffffffffffffffffffffffffffffffffffffffff1673ffffffffffffffffffffffffffffffffffffffff1673ffffffffffffffffffffffffffffffffffffffff16815260200190815260200160002060007f444149000000000000000000000000000000000000000000000000000000000081526020019081526020016000205461313890919063ffffffff16565b60036000878781548110611879577f4e487b7100000000000000000000000000000000000000000000000000000000600052603260045260246000fd5b906000526020600020906008020160030160009054906101000a900473ffffffffffffffffffffffffffffffffffffffff1673ffffffffffffffffffffffffffffffffffffffff1673ffffffffffffffffffffffffffffffffffffffff16815260200190815260200160002060007f44414900000000000000000000000000000000000000000000000000000000008152602001908152602001600020819055505b6006600081548092919061192e90613c2b565b9190505550838061193e90613c2b565b945050505061089d565b5b8280549050821080156119ef5750828281548110611990577f4e487b7100000000000000000000000000000000000000000000000000000000600052603260045260246000fd5b9060005260206000209060080201600401548383815481106119db577f4e487b7100000000000000000000000000000000000000000000000000000000600052603260045260246000fd5b906000526020600020906008020160050154145b15611c975760008290505b60018480549050611a0b9190613b56565b811015611bc85783600182611a209190613aa6565b81548110611a57577f4e487b7100000000000000000000000000000000000000000000000000000000600052603260045260246000fd5b9060005260206000209060080201848281548110611a9e577f4e487b7100000000000000000000000000000000000000000000000000000000600052603260045260246000fd5b9060005260206000209060080201600082015481600001556001820160009054906101000a900460ff168160010160006101000a81548160ff02191690836001811115611b14577f4e487b7100000000000000000000000000000000000000000000000000000000600052602160045260246000fd5b0217905550600282015481600201556003820160009054906101000a900473ffffffffffffffffffffffffffffffffffffffff168160030160006101000a81548173ffffffffffffffffffffffffffffffffffffffff021916908373ffffffffffffffffffffffffffffffffffffffff160217905550600482015481600401556005820154816005015560068201548160060155600782015481600701559050508080611bc090613c2b565b9150506119fa565b5082805480611c00577f4e487b7100000000000000000000000000000000000000000000000000000000600052603160045260246000fd5b60019003818190600052602060002090600802016000808201600090556001820160006101000a81549060ff021916905560028201600090556003820160006101000a81549073ffffffffffffffffffffffffffffffffffffffff02191690556004820160009055600582016000905560068201600090556007820160009055505090558180611c8f90613c2b565b925050611949565b5050505050505050565b60065481565b60006020528060005260406000206000915090508060000154908060010160009054906101000a900473ffffffffffffffffffffffffffffffffffffffff16905082565b600260009054906101000a900473ffffffffffffffffffffffffffffffffffffffff1673ffffffffffffffffffffffffffffffffffffffff163373ffffffffffffffffffffffffffffffffffffffff1614611d7b576040517f08c379a0000000000000000000000000000000000000000000000000000000008152600401611d7290613897565b60405180910390fd5b600060405180604001604052808481526020018373ffffffffffffffffffffffffffffffffffffffff168152509050806000808581526020019081526020016000206000820151816000015560208201518160010160006101000a81548173ffffffffffffffffffffffffffffffffffffffff021916908373ffffffffffffffffffffffffffffffffffffffff1602179055509050506001839080600181540180825580915050600190039060005260206000200160009091909190915055505050565b60018181548110611e4f57600080fd5b906000526020600020016000915090505481565b80600073ffffffffffffffffffffffffffffffffffffffff1660008083815260200190815260200160002060010160009054906101000a900473ffffffffffffffffffffffffffffffffffffffff1673ffffffffffffffffffffffffffffffffffffffff161415611f09576040517f08c379a0000000000000000000000000000000000000000000000000000000008152600401611f00906138f7565b60405180910390fd5b82600360003373ffffffffffffffffffffffffffffffffffffffff1673ffffffffffffffffffffffffffffffffffffffff1681526020019081526020016000206000848152602001908152602001600020541015611f9c576040517f08c379a0000000000000000000000000000000000000000000000000000000008152600401611f9390613877565b60405180910390fd5b60008083815260200190815260200160002060010160009054906101000a900473ffffffffffffffffffffffffffffffffffffffff1673ffffffffffffffffffffffffffffffffffffffff1663a9059cbb33856040518363ffffffff1660e01b815260040161200c9291906137c6565b602060405180830381600087803b15801561202657600080fd5b505af115801561203a573d6000803e3d6000fd5b505050506040513d601f19601f8201168201806040525081019061205e919061323c565b506120c283600360003373ffffffffffffffffffffffffffffffffffffffff1673ffffffffffffffffffffffffffffffffffffffff16815260200190815260200160002060008581526020019081526020016000205461312290919063ffffffff16565b600360003373ffffffffffffffffffffffffffffffffffffffff1673ffffffffffffffffffffffffffffffffffffffff168152602001908152602001600020600084815260200190815260200160002081905550505050565b6060600060018054905067ffffffffffffffff811115612164577f4e487b7100000000000000000000000000000000000000000000000000000000600052604160045260246000fd5b60405190808252806020026020018201604052801561219d57816020015b61218a613164565b8152602001906001900390816121825790505b50905060005b600180549050811015612304576040518060400160405280600080600185815481106121f8577f4e487b7100000000000000000000000000000000000000000000000000000000600052603260045260246000fd5b9060005260206000200154815260200190815260200160002060000154815260200160008060018581548110612257577f4e487b7100000000000000000000000000000000000000000000000000000000600052603260045260246000fd5b9060005260206000200154815260200190815260200160002060010160009054906101000a900473ffffffffffffffffffffffffffffffffffffffff1673ffffffffffffffffffffffffffffffffffffffff168152508282815181106122e6577f4e487b7100000000000000000000000000000000000000000000000000000000600052603260045260246000fd5b602002602001018190525080806122fc90613c2b565b9150506121a3565b508091505090565b80600073ffffffffffffffffffffffffffffffffffffffff1660008083815260200190815260200160002060010160009054906101000a900473ffffffffffffffffffffffffffffffffffffffff1673ffffffffffffffffffffffffffffffffffffffff1614156123b2576040517f08c379a00000000000000000000000000000000000000000000000000000000081526004016123a9906138f7565b60405180910390fd5b60008083815260200190815260200160002060010160009054906101000a900473ffffffffffffffffffffffffffffffffffffffff1673ffffffffffffffffffffffffffffffffffffffff166323b872dd3330866040518463ffffffff1660e01b81526004016124249392919061378f565b602060405180830381600087803b15801561243e57600080fd5b505af1158015612452573d6000803e3d6000fd5b505050506040513d601f19601f82011682018060405250810190612476919061323c565b506124da83600360003373ffffffffffffffffffffffffffffffffffffffff1673ffffffffffffffffffffffffffffffffffffffff16815260200190815260200160002060008581526020019081526020016000205461313890919063ffffffff16565b600360003373ffffffffffffffffffffffffffffffffffffffff1673ffffffffffffffffffffffffffffffffffffffff168152602001908152602001600020600084815260200190815260200160002081905550505050565b83600073ffffffffffffffffffffffffffffffffffffffff1660008083815260200190815260200160002060010160009054906101000a900473ffffffffffffffffffffffffffffffffffffffff1673ffffffffffffffffffffffffffffffffffffffff1614156125d9576040517f08c379a00000000000000000000000000000000000000000000000000000000081526004016125d0906138f7565b60405180910390fd5b847f4441490000000000000000000000000000000000000000000000000000000000600080838152602001908152602001600020600001541415612652576040517f08c379a0000000000000000000000000000000000000000000000000000000008152600401612649906138b7565b60405180910390fd5b60018081111561268b577f4e487b7100000000000000000000000000000000000000000000000000000000600052602160045260246000fd5b8360018111156126c4577f4e487b7100000000000000000000000000000000000000000000000000000000600052602160045260246000fd5b14156127625784600360003373ffffffffffffffffffffffffffffffffffffffff1673ffffffffffffffffffffffffffffffffffffffff168152602001908152602001600020600088815260200190815260200160002054101561275d576040517f08c379a0000000000000000000000000000000000000000000000000000000008152600401612754906138d7565b60405180910390fd5b612828565b612775848661314e90919063ffffffff16565b600360003373ffffffffffffffffffffffffffffffffffffffff1673ffffffffffffffffffffffffffffffffffffffff16815260200190815260200160002060007f44414900000000000000000000000000000000000000000000000000000000008152602001908152602001600020541015612827576040517f08c379a000000000000000000000000000000000000000000000000000000000815260040161281e90613917565b60405180910390fd5b5b6000600460008881526020019081526020016000206000856001811115612878577f4e487b7100000000000000000000000000000000000000000000000000000000600052602160045260246000fd5b815260200190815260200160002090508060405180610100016040528060055481526020018660018111156128d6577f4e487b7100000000000000000000000000000000000000000000000000000000600052602160045260246000fd5b81526020018981526020013373ffffffffffffffffffffffffffffffffffffffff168152602001888152602001600081526020018781526020014281525090806001815401808255809150506001900390600052602060002090600802016000909190919091506000820151816000015560208201518160010160006101000a81548160ff02191690836001811115612998577f4e487b7100000000000000000000000000000000000000000000000000000000600052602160045260246000fd5b02179055506040820151816002015560608201518160030160006101000a81548173ffffffffffffffffffffffffffffffffffffffff021916908373ffffffffffffffffffffffffffffffffffffffff1602179055506080820151816004015560a0820151816005015560c0820151816006015560e082015181600701555050600080828054905011612a2c576000612a3e565b60018280549050612a3d9190613b56565b5b90505b60008111156130f25760006001811115612a84577f4e487b7100000000000000000000000000000000000000000000000000000000600052602160045260246000fd5b856001811115612abd577f4e487b7100000000000000000000000000000000000000000000000000000000600052602160045260246000fd5b148015612b69575081600182612ad39190613b56565b81548110612b0a577f4e487b7100000000000000000000000000000000000000000000000000000000600052603260045260246000fd5b906000526020600020906008020160060154828281548110612b55577f4e487b7100000000000000000000000000000000000000000000000000000000600052603260045260246000fd5b906000526020600020906008020160060154105b15612b73576130f2565b600180811115612bac577f4e487b7100000000000000000000000000000000000000000000000000000000600052602160045260246000fd5b856001811115612be5577f4e487b7100000000000000000000000000000000000000000000000000000000600052602160045260246000fd5b148015612c91575081600182612bfb9190613b56565b81548110612c32577f4e487b7100000000000000000000000000000000000000000000000000000000600052603260045260246000fd5b906000526020600020906008020160060154828281548110612c7d577f4e487b7100000000000000000000000000000000000000000000000000000000600052603260045260246000fd5b906000526020600020906008020160060154115b15612c9b576130f2565b600082600183612cab9190613b56565b81548110612ce2577f4e487b7100000000000000000000000000000000000000000000000000000000600052603260045260246000fd5b906000526020600020906008020160405180610100016040529081600082015481526020016001820160009054906101000a900460ff166001811115612d51577f4e487b7100000000000000000000000000000000000000000000000000000000600052602160045260246000fd5b6001811115612d89577f4e487b7100000000000000000000000000000000000000000000000000000000600052602160045260246000fd5b8152602001600282015481526020016003820160009054906101000a900473ffffffffffffffffffffffffffffffffffffffff1673ffffffffffffffffffffffffffffffffffffffff1673ffffffffffffffffffffffffffffffffffffffff1681526020016004820154815260200160058201548152602001600682015481526020016007820154815250509050828281548110612e50577f4e487b7100000000000000000000000000000000000000000000000000000000600052603260045260246000fd5b906000526020600020906008020183600184612e6c9190613b56565b81548110612ea3577f4e487b7100000000000000000000000000000000000000000000000000000000600052603260045260246000fd5b9060005260206000209060080201600082015481600001556001820160009054906101000a900460ff168160010160006101000a81548160ff02191690836001811115612f19577f4e487b7100000000000000000000000000000000000000000000000000000000600052602160045260246000fd5b0217905550600282015481600201556003820160009054906101000a900473ffffffffffffffffffffffffffffffffffffffff168160030160006101000a81548173ffffffffffffffffffffffffffffffffffffffff021916908373ffffffffffffffffffffffffffffffffffffffff1602179055506004820154816004015560058201548160050155600682015481600601556007820154816007015590505080838381548110612ff4577f4e487b7100000000000000000000000000000000000000000000000000000000600052603260045260246000fd5b90600052602060002090600802016000820151816000015560208201518160010160006101000a81548160ff0219169083600181111561305d577f4e487b7100000000000000000000000000000000000000000000000000000000600052602160045260246000fd5b02179055506040820151816002015560608201518160030160006101000a81548173ffffffffffffffffffffffffffffffffffffffff021916908373ffffffffffffffffffffffffffffffffffffffff1602179055506080820151816004015560a0820151816005015560c0820151816006015560e0820151816007015590505081806130e990613c01565b92505050612a41565b5050505050505050565b600260009054906101000a900473ffffffffffffffffffffffffffffffffffffffff1681565b600081836131309190613b56565b905092915050565b600081836131469190613aa6565b905092915050565b6000818361315c9190613afc565b905092915050565b604051806040016040528060008019168152602001600073ffffffffffffffffffffffffffffffffffffffff1681525090565b6000813590506131a681613ddc565b92915050565b6000815190506131bb81613df3565b92915050565b6000813590506131d081613e0a565b92915050565b6000813590506131e581613e21565b92915050565b6000813590506131fa81613e31565b92915050565b6000806040838503121561321357600080fd5b600061322185828601613197565b9250506020613232858286016131c1565b9150509250929050565b60006020828403121561324e57600080fd5b600061325c848285016131ac565b91505092915050565b60006020828403121561327757600080fd5b6000613285848285016131c1565b91505092915050565b600080604083850312156132a157600080fd5b60006132af858286016131c1565b92505060206132c085828601613197565b9150509250929050565b600080604083850312156132dd57600080fd5b60006132eb858286016131c1565b92505060206132fc858286016131d6565b9150509250929050565b60008060006060848603121561331b57600080fd5b6000613329868287016131c1565b935050602061333a868287016131eb565b925050604061334b868287016131d6565b9150509250925092565b60008060006060848603121561336a57600080fd5b6000613378868287016131c1565b9350506020613389868287016131eb565b925050604061339a868287016131eb565b9150509250925092565b600080600080608085870312156133ba57600080fd5b60006133c8878288016131c1565b94505060206133d9878288016131eb565b93505060406133ea878288016131eb565b92505060606133fb878288016131d6565b91505092959194509250565b60006020828403121561341957600080fd5b6000613427848285016131eb565b91505092915050565b6000806040838503121561344357600080fd5b6000613451858286016131eb565b9250506020613462858286016131c1565b9150509250929050565b60006134788383613685565b6101008301905092915050565b60006134918383613727565b60408301905092915050565b6134a681613b8a565b82525050565b6134b581613b8a565b82525050565b60006134c682613a43565b6134d08185613a73565b93506134db83613a23565b8060005b8381101561350c5781516134f3888261346c565b97506134fe83613a59565b9250506001810190506134df565b5085935050505092915050565b600061352482613a4e565b61352e8185613a84565b935061353983613a33565b8060005b8381101561356a5781516135518882613485565b975061355c83613a66565b92505060018101905061353d565b5085935050505092915050565b61358081613ba8565b82525050565b61358f81613ba8565b82525050565b61359e81613bef565b82525050565b6135ad81613bef565b82525050565b60006135c0601383613a95565b91506135cb82613cd2565b602082019050919050565b60006135e3601d83613a95565b91506135ee82613cfb565b602082019050919050565b6000613606601d83613a95565b915061361182613d24565b602082019050919050565b6000613629601283613a95565b915061363482613d4d565b602082019050919050565b600061364c601983613a95565b915061365782613d76565b602082019050919050565b600061366f601983613a95565b915061367a82613d9f565b602082019050919050565b6101008201600082015161369c6000850182613756565b5060208201516136af6020850182613595565b5060408201516136c26040850182613577565b5060608201516136d5606085018261349d565b5060808201516136e86080850182613756565b5060a08201516136fb60a0850182613756565b5060c082015161370e60c0850182613756565b5060e082015161372160e0850182613756565b50505050565b60408201600082015161373d6000850182613577565b506020820151613750602085018261349d565b50505050565b61375f81613be5565b82525050565b61376e81613be5565b82525050565b600060208201905061378960008301846134ac565b92915050565b60006060820190506137a460008301866134ac565b6137b160208301856134ac565b6137be6040830184613765565b949350505050565b60006040820190506137db60008301856134ac565b6137e86020830184613765565b9392505050565b6000602082019050818103600083015261380981846134bb565b905092915050565b6000602082019050818103600083015261382b8184613519565b905092915050565b60006020820190506138486000830184613586565b92915050565b60006040820190506138636000830185613586565b61387060208301846134ac565b9392505050565b60006020820190508181036000830152613890816135b3565b9050919050565b600060208201905081810360008301526138b0816135d6565b9050919050565b600060208201905081810360008301526138d0816135f9565b9050919050565b600060208201905081810360008301526138f08161361c565b9050919050565b600060208201905081810360008301526139108161363f565b9050919050565b6000602082019050818103600083015261393081613662565b9050919050565b600060208201905061394c6000830184613765565b92915050565b600061010082019050613968600083018b613765565b613975602083018a6135a4565b6139826040830189613586565b61398f60608301886134ac565b61399c6080830187613765565b6139a960a0830186613765565b6139b660c0830185613765565b6139c360e0830184613765565b9998505050505050505050565b600060a0820190506139e56000830188613765565b6139f26020830187613765565b6139ff6040830186613765565b613a0c6060830185613765565b613a196080830184613765565b9695505050505050565b6000819050602082019050919050565b6000819050602082019050919050565b600081519050919050565b600081519050919050565b6000602082019050919050565b6000602082019050919050565b600082825260208201905092915050565b600082825260208201905092915050565b600082825260208201905092915050565b6000613ab182613be5565b9150613abc83613be5565b9250827fffffffffffffffffffffffffffffffffffffffffffffffffffffffffffffffff03821115613af157613af0613c74565b5b828201905092915050565b6000613b0782613be5565b9150613b1283613be5565b9250817fffffffffffffffffffffffffffffffffffffffffffffffffffffffffffffffff0483118215151615613b4b57613b4a613c74565b5b828202905092915050565b6000613b6182613be5565b9150613b6c83613be5565b925082821015613b7f57613b7e613c74565b5b828203905092915050565b6000613b9582613bc5565b9050919050565b60008115159050919050565b6000819050919050565b6000819050613bc082613dc8565b919050565b600073ffffffffffffffffffffffffffffffffffffffff82169050919050565b6000819050919050565b6000613bfa82613bb2565b9050919050565b6000613c0c82613be5565b91506000821415613c2057613c1f613c74565b5b600182039050919050565b6000613c3682613be5565b91507fffffffffffffffffffffffffffffffffffffffffffffffffffffffffffffffff821415613c6957613c68613c74565b5b600182019050919050565b7f4e487b7100000000000000000000000000000000000000000000000000000000600052601160045260246000fd5b7f4e487b7100000000000000000000000000000000000000000000000000000000600052602160045260246000fd5b7f4e6f7420656e6f7567682042616c616e63657300000000000000000000000000600082015250565b7f4f6e6c792061646d696e2063616e20616464206e657720546f6b656e73000000600082015250565b7f444149206973206e6f7420737570706f7274656420746f205472616465000000600082015250565b7f496e73756666696369656e7420546f6b656e0000000000000000000000000000600082015250565b7f546f6b656e206973206e6f7420737570706f7274656464646400000000000000600082015250565b7f496e73756666696369656e74204461692042616c616e63657300000000000000600082015250565b60028110613dd957613dd8613ca3565b5b50565b613de581613b8a565b8114613df057600080fd5b50565b613dfc81613b9c565b8114613e0757600080fd5b50565b613e1381613ba8565b8114613e1e57600080fd5b50565b60028110613e2e57600080fd5b50565b613e3a81613be5565b8114613e4557600080fd5b5056fea264697066735822122098a3bc59c2fde68fe6cd13afe687d46bd0b712600dc86beb2a329af914d2201864736f6c63430008040033",
  "linkReferences": {},
  "deployedLinkReferences": {}
}